:020000040800F2
:1000000020130020D1010008D9010008DB010008FD
:10001000DD010008DF010008E10100080000000028
:10002000000000000000000000000000E3010008E4
:10003000E501000800000000A70100080107000812
:10004000EB010008EB010008EB010008EB010008E0
:10005000EB010008EB0100088D020008EB0100082D
:10006000EB010008EB010008EB010008EB010008C0
:10007000EB010008EB010008EB010008EB010008B0
:10008000EB010008EB010008EB010008EB010008A0
:10009000EB010008EB010008EB010008EB01000890
:1000A000EB010008EB010008EB010008EB01000880
:1000B00075070008EB010008EB010008EB010008E0
:1000C000EB010008EB010008EB010008EB01000860
:1000D000EB010008EB010008EB010008EB01000850
:1000E000EB010008EB010008EB01000800F002F84A
:1000F00000F03AF80AA090E8000C82448344AAF188
:100100000107DA4501D100F02FF8AFF2090EBAE885
:100110000F0013F0010F18BFFB1A43F0010318473B
:10012000740C0000940C0000103A24BF78C878C109
:10013000FAD8520724BF30C830C144BF04680C60ED
:10014000704700000023002400250026103A28BF35
:1001500078C1FBD8520728BF30C148BF0B60704739
:100160001FB51FBD10B510BD00F055F81146FFF7C3
:10017000F7FF00F0F9FB00F073F803B4FFF7F2FFAC
:1001800003BC00F07BF8000010480268D2F800D0F1
:10019000BDE8F00F0FBC5DF804CB01B05DF804EBD7
:1001A00001B062B6704772B62DE9F00F07480168DA
:1001B000C1F800D001B500F015FDBDE801400168AF
:1001C000D1F800D0BDE8F00F62B6704710000020F3
:1001D0000948804709480047FEE7FEE7FEE7FEE7DB
:1001E000FEE7FEE7FEE7FEE7FEE7FEE70448054917
:1001F000054A064B7047000015070008ED0000088F
:10020000200D002020130020200F0020200F0020B0
:10021000704770477047754600F02CF8AE460500F1
:100220006946534620F00700854618B020B5FFF711
:10023000DDFFBDE820404FF000064FF000074FF013
:1002400000084FF0000B21F00701AC46ACE8C009F4
:10025000ACE8C009ACE8C009ACE8C0098D467047FD
:1002600010B50446AFF300802046BDE81040FFF70C
:1002700084BF000000487047BC0C002001491820D2
:10028000ABBEFEE7260002007047000010B505482F
:1002900000F0B0FC0448006840F00100024908602A
:1002A00010BD0000080000201404014010B572B613
:1002B0002948806940F0050027498861274800687F
:1002C00020F00100254908600846006820F002007F
:1002D00008600846006840F00800086008460068AA
:1002E00020F0040008601D480C30006840F0010058
:1002F0001A490C3108601A48806820F00F0018492C
:1003000088601848006840F00100164908601548E8
:100310000830006820F00100124908310860081D0B
:10032000006840F00100091D08600121062000F06E
:10033000DFFA062000280DDB00BF00BF00F01F021F
:10034000012191404209920002F1E022C2F800111D
:1003500000BF00BF00BF10BD0010024000080140F8
:10036000000001400004014008B50121042000F014
:10037000E9F87E20ADF8000010208DF8030003207E
:100380008DF802006946024800F004F808BD00003C
:10039000000801402DE9F04102460025002600201A
:1003A00000230024002791F803C00CF00F0591F8FA
:1003B00003C00CF0100CBCF1000F03D091F802C088
:1003C0004CEA050591F800C0BCF1000F31D014686B
:1003D00000202BE04FF0010C0CFA00F3B1F800C044
:1003E0000CEA03069E4220D183004FF00F0C0CFA5A
:1003F00003F7BC4305FA03FC4CEA040491F803C07C
:10040000BCF1280F06D14FF0010C0CFA00FCC2F829
:1004100014C00AE091F803C0BCF1480F05D14FF0B9
:10042000010C0CFA00FCC2F810C0401C0828D1D303
:100430001460B1F800C0BCF1FF0F34DD5468002037
:100440002EE000F1080C4FF0010808FA0CF3B1F8A7
:1004500000C00CEA03069E4221D183004FF00F0C2E
:100460000CFA03F7BC4305FA03FC4CEA040491F8C8
:1004700003C0BCF1280F05D100F1080C08FA0CF8F4
:10048000C2F8148091F803C0BCF1480F07D100F105
:10049000080C4FF0010808FA0CF8C2F81080401C54
:1004A0000828CED35460BDE8F081416170470161F6
:1004B0007047000070B5002100230F22C47804B3F8
:1004C000154C246804F4E064C4F5E064210AC1F129
:1004D0000403CA40447804FA03F1847814402143A9
:1004E00009010E4C0678A155047804F01F0501247B
:1004F000AC4005786D11AD0005F1E025C5F800416F
:1005000009E0047804F01F050124AC40044D06788E
:10051000761145F8264070BD0CED00E000E400E0E7
:1005200080E100E029B1064AD2690243044BDA6156
:1005300004E0034AD2698243014BDA61704700004C
:100540000010024029B1064A92690243044B9A61A5
:1005500004E0034A92698243014B9A6170470000AC
:10056000001002402A48006840F4803028490860A2
:1005700000BF2748006800F400300028F9D0244864
:10058000406820F47010224948600846406840F4F2
:10059000E01048600846406840F4803048600846F3
:1005A000406820F0F00048600846406840F48060F1
:1005B00048600846406820F460504860084600687B
:1005C00040F08070086000BF1148006800F00070C3
:1005D0000028F9D00E48406820F003000C4948601C
:1005E0000846406840F00200486000BF0848406884
:1005F00000F00C000828F9D10648006840F002001D
:10060000044908600846006840F010000860704720
:10061000001002400020024010B500F001F810BDAB
:100620000CB50020019000903348006840F4803001
:100630003149086000BF3048006800F40030009085
:100640000198401C0190009818B90198B0F5A06F6E
:10065000F1D12948006800F4003010B10120009069
:1006600001E0002000900098012843D12348006851
:1006700040F01000214908600846006820F007009B
:1006800008600846006840F0020008601A484068A8
:10069000194948600846406848600846406840F488
:1006A000806048600846406820F47C104860084636
:1006B000406840F4E81048600846006840F08070E8
:1006C000086000BF0C48006800F000700028F9D0F6
:1006D0000948406820F00300074948600846406820
:1006E00040F00200486000BF0348406800F00C0082
:1006F0000828F9D10CBD0000001002400020024083
:100700000348006840F080500149086070470000CD
:1007100004ED00E010B51348006840F001001149F5
:10072000086008464068104908400E49486008467D
:1007300000680E4908400B4908600846006820F42C
:10074000802008600846406820F4FE0048604FF4AE
:100750001F008860FFF760FF4FF0006004490860E9
:1007600010BD0000001002400000FFF8FFFFF6FE81
:1007700008ED00E010B50121880700F04BF840B10A
:1007800004480068401C034908600121880700F004
:1007900032F810BD000000201FB501210846FFF708
:1007A000C1FE41F61F40ADF8040042F20F70ADF8F3
:1007B00008000020ADF80A00ADF8060001A94FF0CE
:1007C000804000F043F801221146900700F033F812
:1007D0000121880700F012F81C208DF80000052088
:1007E0008DF8010001208DF802008DF803006846A5
:1007F000FFF760FE1FBDCA430282704721B1028825
:1008000042F00102028004E002884FF6FE731A40B3
:100810000280704730B50246002000230024158A6C
:1008200005EA0103958905EA010413B10CB1012021
:1008300000E0002030BD1AB183890B43838102E0C0
:1008400083898B43838170478184704700220288AB
:100850001D4B98420ED01D4B98420BD0B0F1804FEB
:1008600008D01B4B984205D01A4B984202D01A4B25
:10087000984204D14FF68F731A404B881A43174B96
:10088000984207D0164B984204D04FF6FF431A40C7
:10089000CB881A4302808B8883850B8803850A4B9B
:1008A00098420BD0094B984208D00E4B984205D085
:1008B0000D4B984202D00D4B984201D10B7A038622
:1008C0000123838270470000002C01400034014066
:1008D0000004004000080040000C004000100040F0
:1008E0000014004000400140004401400048014025
:1008F00010B5002804DB0A07130E054A135406E05E
:100900000A07140E034A00F00F031B1FD45410BD36
:1009100000E400E018ED00E010B540210548FFF7C5
:10092000C4FD02210348FFF7C2FD20210148FFF763
:10093000BEFD10BD0008014010B504210948FFF7B5
:10094000B4FD10210748FFF7B0FD20210548FFF74F
:10095000ACFD02210348FFF7AAFD40210148FFF743
:10096000A6FD10BD00080140FFF7FCFDFFF7FCFCF1
:10097000FFF712FF00F07AF8084800F027F808485F
:1009800000F02EF8074800F02BF8074800F028F890
:100990000A2000F073F800BFFEE700000800002006
:1009A000990C0008010D0008550C000800B502461E
:1009B00072B603E062B600F023F972B61068002840
:1009C000F8D01068401E106062B600BD10B5044635
:1009D00002480460FFF76AFC10BD00001800002008
:1009E00010B5044672B61D48006800F06DF81B484B
:1009F000006800EBC00101EB0010194901EB401049
:100A0000C0F818431548006858B9164813490968D2
:100A100000EBC1001349114A126801EBC2014860A2
:100A200012E010480D49096800EBC1010B4800684D
:100A3000401E0C4A02EBC000416010460146074AC6
:100A4000126801EBC2014860064807490860034884
:100A50000068401C0149086062B610BD1400002007
:100A60003C0000201C00002010000020014802492A
:100A700008607047401901000C00002010B50446C2
:100A800000204FF0E021086188610E49096804FBED
:100A900001F0401E4FF0E02148610021481EFFF7A1
:100AA00027FF4FF0E020006940F005004FF0E02103
:100AB00008610846006940F002000861FFF764FB26
:100AC00010BD00000C00002000EBC00101EB001184
:100AD000424A02EB411101F53871414A42F83010A7
:100AE0004FF0807100EBC00202EB00123B4B03EBB6
:100AF0004212C2F81C134FF0AA3100EBC00202EB05
:100B0000001203EB4212C2F8141300EBC00202EB16
:100B1000001203EB4212C2F8101300EBC00202EB0A
:100B2000001203EB4212C2F80C1300EBC00202EBFE
:100B3000001203EB4212C2F8081300EBC00202EBF2
:100B4000001203EB4212C2F8041300EBC00202EBE6
:100B5000001203EB4212C2F8001300EBC00202EBDA
:100B6000001203EB4212C2F8FC1200EBC00202EBCF
:100B7000001203EB4212C2F8F81200EBC00202EBC3
:100B8000001203EB4212C2F8F41200EBC00202EBB7
:100B9000001203EB4212C2F8F01200EBC00202EBAB
:100BA000001203EB4212C2F8EC1200EBC00202EB9F
:100BB000001203EB4212C2F8E81200EBC00202EB93
:100BC000001203EB4212C2F8E41200EBC00202EB87
:100BD000001203EB4212C2F8E01270473C00002002
:100BE0001C00002002480068406801490860704706
:100BF0001000002072B60168491C016062B670479F
:100C000000204FF0E02188610348006840F08060D8
:100C1000014908607047000004ED00E010B50221B2
:100C20000B48FFF742FC04210948FFF73EFC08216E
:100C30000748FFF73AFC10210548FFF736FC202152
:100C40000348FFF732FC40210148FFF72EFC10BD9E
:100C50000008014019E00D48FFF7A8FE0C480068A5
:100C6000401C0B49086008460068022801D9012091
:100C70000860FFF7D3FF00214FF08040FFF7E4FD4D
:100C8000002004490860FFF7BBFFE4E708000020EC
:100C900004000020000000202DE017480068012813
:100CA00027D1164800683C2803D10020134908606A
:100CB00021E0124800681A2802D2FFF73DFE1AE030
:100CC0000E4800681A2806D30C4800681E2802D275
:100CD000FFF722FE0FE0094800681E2806D30748E8
:100CE0000068382802D200F041F804E000F02EF845
:100CF00001E0FFF785FFD0E704000020000000209E
:100D00001CE00F480068022816D10E48006802282F
:100D100003D100200B49086010E00A48006840B980
:100D200004210948FFF7C3FB20210748FFF7BFFB59
:100D300004E0FFF773FF01E0FFF762FFE1E7000067
:100D400004000020000000200008014010B5082128
:100D50000548FFF7AAFB04210348FFF7A8FB102171
:100D60000148FFF7A4FB10BD0008014010B50221A7
:100D70000748FFF79AFB20210548FFF796FB08215B
:100D80000348FFF794FB10210148FFF790FB10BDCB
:100D900000080140B40D0008000000201C00000005
:100DA00028010008D00D00081C00002004130000DA
:100DB00044010008000000000100000000000000E5
:100DC0000000000000000000000000000000000023
:04000005080000ED02
:00000001FF
